{
  "contractName": "Storage",
  "abi": [
    {
      "constant": true,
      "inputs": [],
      "name": "_initialized",
      "outputs": [
        {
          "internalType": "bool",
          "name": "",
          "type": "bool"
        }
      ],
      "payable": false,
      "stateMutability": "view",
      "type": "function"
    },
    {
      "constant": true,
      "inputs": [],
      "name": "owner",
      "outputs": [
        {
          "internalType": "address",
          "name": "",
          "type": "address"
        }
      ],
      "payable": false,
      "stateMutability": "view",
      "type": "function"
    }
  ],
  "bytecode": "0x608060405234801561001057600080fd5b5061010d806100206000396000f3fe6080604052348015600f57600080fd5b506004361060325760003560e01c80633072cf601460375780638da5cb5b146057575b600080fd5b603d609f565b604051808215151515815260200191505060405180910390f35b605d60b2565b604051808273ffffffffffffffffffffffffffffffffffffffff1673ffffffffffffffffffffffffffffffffffffffff16815260200191505060405180910390f35b600560149054906101000a900460ff1681565b600560009054906101000a900473ffffffffffffffffffffffffffffffffffffffff168156fea265627a7a72315820543cb2e4a82fc60fb61f9663d4cc3d61f8e5a00c26faf39b10483057c12eed6064736f6c634300050c0032",
  "source": "pragma solidity 0.5.12;\r\n//Storage cannot change in any updates\r\n\r\ncontract Storage {\r\n    mapping(string => uint256) _uintStorage;\r\n    mapping(string=> address) _addressStorage;\r\n    mapping(string=> bool) _boolStorage;\r\n    mapping(string=> string) _stringStorage;\r\n    mapping(string=> bytes4) _bytesStorage;\r\n    address public owner;\r\n    bool public _initialized;\r\n}",
  "sourcePath": "C:\\Users\\LukeO\\Desktop\\proxyContract\\contracts\\Storage.sol",
  "compiler": {
    "name": "solc",
    "version": "0.5.12+commit.7709ece9.Emscripten.clang"
  },
  "schemaVersion": "3.0.16",
  "updatedAt": "2020-10-19T03:06:26.229Z",
  "devdoc": {
    "methods": {}
  },
  "userdoc": {
    "methods": {}
  }
}